{
  "address": "0xEC7845471b427E87c7824b978AAF11a9d677B768",
  "abi": [
    {
      "anonymous": false,
      "inputs": [
        {
          "indexed": true,
          "internalType": "address",
          "name": "previousOwner",
          "type": "address"
        },
        {
          "indexed": true,
          "internalType": "address",
          "name": "newOwner",
          "type": "address"
        }
      ],
      "name": "OwnershipTransferred",
      "type": "event"
    },
    {
      "inputs": [],
      "name": "MAX_WITHDRAWAL_AMOUNT",
      "outputs": [
        {
          "internalType": "uint256",
          "name": "",
          "type": "uint256"
        }
      ],
      "stateMutability": "view",
      "type": "function"
    },
    {
      "inputs": [],
      "name": "TIMEOUT_LIMIT",
      "outputs": [
        {
          "internalType": "uint256",
          "name": "",
          "type": "uint256"
        }
      ],
      "stateMutability": "view",
      "type": "function"
    },
    {
      "inputs": [],
      "name": "checkIfWithdrawalTimeout",
      "outputs": [
        {
          "internalType": "bool",
          "name": "",
          "type": "bool"
        }
      ],
      "stateMutability": "view",
      "type": "function"
    },
    {
      "inputs": [
        {
          "internalType": "address",
          "name": "erc20Address",
          "type": "address"
        },
        {
          "internalType": "uint256",
          "name": "amount",
          "type": "uint256"
        }
      ],
      "name": "deposit",
      "outputs": [],
      "stateMutability": "nonpayable",
      "type": "function"
    },
    {
      "inputs": [
        {
          "internalType": "address[]",
          "name": "erc20Addresses",
          "type": "address[]"
        }
      ],
      "name": "getTokenBalances",
      "outputs": [
        {
          "internalType": "uint256[]",
          "name": "",
          "type": "uint256[]"
        }
      ],
      "stateMutability": "view",
      "type": "function"
    },
    {
      "inputs": [],
      "name": "owner",
      "outputs": [
        {
          "internalType": "address",
          "name": "",
          "type": "address"
        }
      ],
      "stateMutability": "view",
      "type": "function"
    },
    {
      "inputs": [
        {
          "internalType": "address",
          "name": "erc20Address",
          "type": "address"
        },
        {
          "internalType": "uint256",
          "name": "amount",
          "type": "uint256"
        }
      ],
      "name": "ownerWithdraw",
      "outputs": [],
      "stateMutability": "nonpayable",
      "type": "function"
    },
    {
      "inputs": [],
      "name": "renounceOwnership",
      "outputs": [],
      "stateMutability": "nonpayable",
      "type": "function"
    },
    {
      "inputs": [
        {
          "internalType": "address",
          "name": "newOwner",
          "type": "address"
        }
      ],
      "name": "transferOwnership",
      "outputs": [],
      "stateMutability": "nonpayable",
      "type": "function"
    },
    {
      "inputs": [
        {
          "internalType": "address",
          "name": "erc20Address",
          "type": "address"
        },
        {
          "internalType": "uint256",
          "name": "amount",
          "type": "uint256"
        }
      ],
      "name": "withdraw",
      "outputs": [],
      "stateMutability": "nonpayable",
      "type": "function"
    }
  ],
  "transactionHash": "0x310b23ae6fd7b8c778db599c49ca26e176c3f1b94b11a8b41a52217944474f20",
  "args": [],
  "numDeployments": 3,
  "solcInputHash": "c033839e0ba43abfaf0c24250acfead8",
  "bytecode": "0x608060405234801561001057600080fd5b5061001a3361001f565b61006f565b600080546001600160a01b038381166001600160a01b0319831681178455604051919092169283917f8be0079c531659141344cd1fd0a4f28419497f9722a3daafe3b4186f6b6457e09190a35050565b610ac38061007e6000396000f3fe608060405234801561001057600080fd5b506004361061009e5760003560e01c80638da5cb5b116100665780638da5cb5b14610102578063d9c88e141461011d578063f2fde38b14610130578063f3fef3a314610143578063f50bd69f1461015657600080fd5b8063058c8c2e146100a35780632ada5a59146100c557806347e7ef24146100dd578063715018a6146100f25780637448f2f8146100fa575b600080fd5b6100b2674563918244f4000081565b6040519081526020015b60405180910390f35b6100cd610176565b60405190151581526020016100bc565b6100f06100eb366004610848565b610199565b005b6100f06101b2565b6100b2601e81565b6000546040516001600160a01b0390911681526020016100bc565b6100f061012b366004610848565b6101c6565b6100f061013e366004610827565b6101e2565b6100f0610151366004610848565b610260565b610169610164366004610871565b610311565b6040516100bc919061098c565b6000610183601e42610a03565b3360009081526001602052604090205411919050565b6101ae6001600160a01b03831633308461045c565b5050565b6101ba6104cd565b6101c46000610527565b565b6101ce6104cd565b6101ae6001600160a01b0383163383610577565b6101ea6104cd565b6001600160a01b0381166102545760405162461bcd60e51b815260206004820152602660248201527f4f776e61626c653a206e6577206f776e657220697320746865207a65726f206160448201526564647265737360d01b60648201526084015b60405180910390fd5b61025d81610527565b50565b610268610176565b156102b55760405162461bcd60e51b815260206004820152601a60248201527f43616e6e6f742077697468647261772074686174206f6674656e000000000000604482015260640161024b565b336000908152600160205260409020429055674563918244f400008111156101ce5760405162461bcd60e51b815260206004820152600f60248201526e082dadeeadce840e8dede40d0d2ced608b1b604482015260640161024b565b60606000825167ffffffffffffffff81111561033d57634e487b7160e01b600052604160045260246000fd5b604051908082528060200260200182016040528015610366578160200160208202803683370190505b50905060005b83518110156104555783818151811061039557634e487b7160e01b600052603260045260246000fd5b60209081029190910101516040516370a0823160e01b81523060048201526001600160a01b03909116906370a082319060240160206040518083038186803b1580156103e057600080fd5b505afa1580156103f4573d6000803e3d6000fd5b505050506040513d601f19601f820116820180604052508101906104189190610958565b82828151811061043857634e487b7160e01b600052603260045260246000fd5b60209081029190910101528061044d81610a46565b91505061036c565b5092915050565b6040516001600160a01b03808516602483015283166044820152606481018290526104c79085906323b872dd60e01b906084015b60408051601f198184030181529190526020810180516001600160e01b03166001600160e01b0319909316929092179091526105ac565b50505050565b6000546001600160a01b031633146101c45760405162461bcd60e51b815260206004820181905260248201527f4f776e61626c653a2063616c6c6572206973206e6f7420746865206f776e6572604482015260640161024b565b600080546001600160a01b038381166001600160a01b0319831681178455604051919092169283917f8be0079c531659141344cd1fd0a4f28419497f9722a3daafe3b4186f6b6457e09190a35050565b6040516001600160a01b0383166024820152604481018290526105a790849063a9059cbb60e01b90606401610490565b505050565b6000610601826040518060400160405280602081526020017f5361666545524332303a206c6f772d6c6576656c2063616c6c206661696c6564815250856001600160a01b031661067e9092919063ffffffff16565b8051909150156105a7578080602001905181019061061f9190610938565b6105a75760405162461bcd60e51b815260206004820152602a60248201527f5361666545524332303a204552433230206f7065726174696f6e20646964206e6044820152691bdd081cdd58d8d9595960b21b606482015260840161024b565b606061068d8484600085610695565b949350505050565b6060824710156106f65760405162461bcd60e51b815260206004820152602660248201527f416464726573733a20696e73756666696369656e742062616c616e636520666f6044820152651c8818d85b1b60d21b606482015260840161024b565b600080866001600160a01b031685876040516107129190610970565b60006040518083038185875af1925050503d806000811461074f576040519150601f19603f3d011682016040523d82523d6000602084013e610754565b606091505b509150915061076587838387610770565b979650505050505050565b606083156107dc5782516107d5576001600160a01b0385163b6107d55760405162461bcd60e51b815260206004820152601d60248201527f416464726573733a2063616c6c20746f206e6f6e2d636f6e7472616374000000604482015260640161024b565b508161068d565b61068d83838151156107f15781518083602001fd5b8060405162461bcd60e51b815260040161024b91906109d0565b80356001600160a01b038116811461082257600080fd5b919050565b600060208284031215610838578081fd5b6108418261080b565b9392505050565b6000806040838503121561085a578081fd5b6108638361080b565b946020939093013593505050565b60006020808385031215610883578182fd5b823567ffffffffffffffff8082111561089a578384fd5b818501915085601f8301126108ad578384fd5b8135818111156108bf576108bf610a77565b8060051b604051601f19603f830116810181811085821117156108e4576108e4610a77565b604052828152858101935084860182860187018a1015610902578788fd5b8795505b8386101561092b576109178161080b565b855260019590950194938601938601610906565b5098975050505050505050565b600060208284031215610949578081fd5b81518015158114610841578182fd5b600060208284031215610969578081fd5b5051919050565b60008251610982818460208701610a1a565b9190910192915050565b6020808252825182820181905260009190848201906040850190845b818110156109c4578351835292840192918401916001016109a8565b50909695505050505050565b60208152600082518060208401526109ef816040850160208701610a1a565b601f01601f19169190910160400192915050565b600082821015610a1557610a15610a61565b500390565b60005b83811015610a35578181015183820152602001610a1d565b838111156104c75750506000910152565b6000600019821415610a5a57610a5a610a61565b5060010190565b634e487b7160e01b600052601160045260246000fd5b634e487b7160e01b600052604160045260246000fdfea2646970667358221220a2906a894d16f178df3f6a88598f0d6fdbe8e4273673a67627d67fa51a2422f364736f6c63430008040033",
  "devdoc": {
    "kind": "dev",
    "methods": {
      "checkIfWithdrawalTimeout()": {
        "returns": {
          "_0": "true if in timeout, false if not"
        }
      },
      "deposit(address,uint256)": {
        "params": {
          "amount": "amount to be deposited",
          "erc20Address": "ERC20 contract address to be deposited"
        }
      },
      "getTokenBalances(address[])": {
        "params": {
          "erc20Addresses": "An array of ERC20 contract addresses"
        },
        "returns": {
          "_0": "An array of balances"
        }
      },
      "owner()": {
        "details": "Returns the address of the current owner."
      },
      "ownerWithdraw(address,uint256)": {
        "params": {
          "amount": "amount of tokens to be withdrawn",
          "erc20Address": "address of the token to be withdrawn"
        }
      },
      "renounceOwnership()": {
        "details": "Leaves the contract without owner. It will not be possible to call `onlyOwner` functions anymore. Can only be called by the current owner. NOTE: Renouncing ownership will leave the contract without an owner, thereby removing any functionality that is only available to the owner."
      },
      "transferOwnership(address)": {
        "details": "Transfers ownership of the contract to a new account (`newOwner`). Can only be called by the current owner."
      },
      "withdraw(address,uint256)": {
        "params": {
          "amount": "amount to be withdrawn",
          "erc20Address": "ERC20 contract address to be withdrawn"
        }
      }
    },
    "version": 1
  },
  "userdoc": {
    "kind": "user",
    "methods": {
      "checkIfWithdrawalTimeout()": {
        "notice": "checks if the Faucet is in a withdrawal timeout for the caller"
      },
      "deposit(address,uint256)": {
        "notice": "deposit tokens from caller to Faucet"
      },
      "getTokenBalances(address[])": {
        "notice": "A function to get the Faucet's balances of multiple tokens at once"
      },
      "ownerWithdraw(address,uint256)": {
        "notice": "function that is only callable by owner and can withdraw as many tokens from this contract as they want"
      },
      "withdraw(address,uint256)": {
        "notice": "withdraw tokens from Faucet to caller"
      }
    },
    "version": 1
  },
  "storageLayout": {
    "storage": [
      {
        "astId": 7,
        "contract": "contracts/Faucet.sol:Faucet",
        "label": "_owner",
        "offset": 0,
        "slot": "0",
        "type": "t_address"
      },
      {
        "astId": 880,
        "contract": "contracts/Faucet.sol:Faucet",
        "label": "_lastWithdrawalTimes",
        "offset": 0,
        "slot": "1",
        "type": "t_mapping(t_address,t_uint256)"
      }
    ],
    "types": {
      "t_address": {
        "encoding": "inplace",
        "label": "address",
        "numberOfBytes": "20"
      },
      "t_mapping(t_address,t_uint256)": {
        "encoding": "mapping",
        "key": "t_address",
        "label": "mapping(address => uint256)",
        "numberOfBytes": "32",
        "value": "t_uint256"
      },
      "t_uint256": {
        "encoding": "inplace",
        "label": "uint256",
        "numberOfBytes": "32"
      }
    }
  }
}